{
  "contractName": "VengeanceEscrow",
  "abi": [
    {
      "inputs": [
        {
          "internalType": "address",
          "name": "agent_",
          "type": "address"
        },
        {
          "internalType": "address",
          "name": "buyer_",
          "type": "address"
        },
        {
          "internalType": "address",
          "name": "seller_",
          "type": "address"
        },
        {
          "internalType": "uint256",
          "name": "price_",
          "type": "uint256"
        }
      ],
      "stateMutability": "nonpayable",
      "type": "constructor"
    },
    {
      "inputs": [],
      "name": "PRICE",
      "outputs": [
        {
          "internalType": "uint256",
          "name": "",
          "type": "uint256"
        }
      ],
      "stateMutability": "view",
      "type": "function"
    },
    {
      "inputs": [],
      "name": "agent",
      "outputs": [
        {
          "internalType": "address",
          "name": "",
          "type": "address"
        }
      ],
      "stateMutability": "view",
      "type": "function"
    },
    {
      "inputs": [],
      "name": "buyer",
      "outputs": [
        {
          "internalType": "address",
          "name": "",
          "type": "address"
        }
      ],
      "stateMutability": "view",
      "type": "function"
    },
    {
      "inputs": [
        {
          "internalType": "address",
          "name": "",
          "type": "address"
        }
      ],
      "name": "refundableBalance",
      "outputs": [
        {
          "internalType": "uint256",
          "name": "",
          "type": "uint256"
        }
      ],
      "stateMutability": "view",
      "type": "function"
    },
    {
      "inputs": [],
      "name": "seller",
      "outputs": [
        {
          "internalType": "address",
          "name": "",
          "type": "address"
        }
      ],
      "stateMutability": "view",
      "type": "function"
    },
    {
      "inputs": [],
      "name": "buyerPay",
      "outputs": [],
      "stateMutability": "payable",
      "type": "function"
    },
    {
      "inputs": [],
      "name": "sellerPay",
      "outputs": [],
      "stateMutability": "payable",
      "type": "function"
    },
    {
      "inputs": [],
      "name": "withDrawAll",
      "outputs": [],
      "stateMutability": "payable",
      "type": "function"
    },
    {
      "inputs": [],
      "name": "finishPayment",
      "outputs": [],
      "stateMutability": "nonpayable",
      "type": "function"
    },
    {
      "inputs": [],
      "name": "confirmDeliver",
      "outputs": [],
      "stateMutability": "nonpayable",
      "type": "function"
    },
    {
      "inputs": [],
      "name": "destory",
      "outputs": [],
      "stateMutability": "payable",
      "type": "function"
    }
  ],
  "bytecode": "0x60806040523480156200001157600080fd5b5060405162001c3138038062001c3183398181016040528101906200003791906200018a565b826000806101000a81548173ffffffffffffffffffffffffffffffffffffffff021916908373ffffffffffffffffffffffffffffffffffffffff16021790555081600160006101000a81548173ffffffffffffffffffffffffffffffffffffffff021916908373ffffffffffffffffffffffffffffffffffffffff16021790555083600260006101000a81548173ffffffffffffffffffffffffffffffffffffffff021916908373ffffffffffffffffffffffffffffffffffffffff160217905550806003819055506000600460006101000a81548160ff021916908360028111156200014d577f4e487b7100000000000000000000000000000000000000000000000000000000600052602160045260246000fd5b02179055505050505062000268565b6000815190506200016d8162000234565b92915050565b60008151905062000184816200024e565b92915050565b60008060008060808587031215620001a157600080fd5b6000620001b1878288016200015c565b9450506020620001c4878288016200015c565b9350506040620001d7878288016200015c565b9250506060620001ea8782880162000173565b91505092959194509250565b600062000203826200020a565b9050919050565b600073ffffffffffffffffffffffffffffffffffffffff82169050919050565b6000819050919050565b6200023f81620001f6565b81146200024b57600080fd5b50565b62000259816200022a565b81146200026557600080fd5b50565b6119b980620002786000396000f3fe60806040526004361061009c5760003560e01c8063784845521161006457806378484552146101225780638d859f3e1461012c578063991671e214610157578063b03d36cd14610161578063e9931fbc1461019e578063f5ff5c76146101b55761009c565b806308551a53146100a15780632276dc16146100cc5780636bdebcc9146100d657806370a40a3e146100e05780637150d8ae146100f7575b600080fd5b3480156100ad57600080fd5b506100b66101e0565b6040516100c39190611418565b60405180910390f35b6100d4610206565b005b6100de6103fd565b005b3480156100ec57600080fd5b506100f56106d2565b005b34801561010357600080fd5b5061010c610a15565b6040516101199190611418565b60405180910390f35b61012a610a39565b005b34801561013857600080fd5b50610141610c47565b60405161014e91906115b3565b60405180910390f35b61015f610c4d565b005b34801561016d57600080fd5b506101886004803603810190610183919061122d565b610da2565b60405161019591906115b3565b60405180910390f35b3480156101aa57600080fd5b506101b3610dba565b005b3480156101c157600080fd5b506101ca6111f2565b6040516101d79190611418565b60405180910390f35b600160009054906101000a900473ffffffffffffffffffffffffffffffffffffffff1681565b600160009054906101000a900473ffffffffffffffffffffffffffffffffffffffff1673ffffffffffffffffffffffffffffffffffffffff163373ffffffffffffffffffffffffffffffffffffffff1614610296576040517f08c379a000000000000000000000000000000000000000000000000000000000815260040161028d90611513565b60405180910390fd5b60008060028111156102d1577f4e487b7100000000000000000000000000000000000000000000000000000000600052602160045260246000fd5b600460009054906101000a900460ff166002811115610319577f4e487b7100000000000000000000000000000000000000000000000000000000600052602160045260246000fd5b14610359576040517f08c379a0000000000000000000000000000000000000000000000000000000008152600401610350906114d3565b60405180910390fd5b60006003549050803410156103a3576040517f08c379a000000000000000000000000000000000000000000000000000000000815260040161039a90611553565b60405180910390fd5b34600560003373ffffffffffffffffffffffffffffffffffffffff1673ffffffffffffffffffffffffffffffffffffffff16815260200190815260200160002060008282546103f291906115df565b925050819055505050565b600260009054906101000a900473ffffffffffffffffffffffffffffffffffffffff1673ffffffffffffffffffffffffffffffffffffffff163373ffffffffffffffffffffffffffffffffffffffff161461048d576040517f08c379a000000000000000000000000000000000000000000000000000000000815260040161048490611493565b60405180910390fd5b60028060028111156104c8577f4e487b7100000000000000000000000000000000000000000000000000000000600052602160045260246000fd5b600460009054906101000a900460ff166002811115610510577f4e487b7100000000000000000000000000000000000000000000000000000000600052602160045260246000fd5b14610550576040517f08c379a0000000000000000000000000000000000000000000000000000000008152600401610547906114d3565b60405180910390fd5b6000600560008060009054906101000a900473ffffffffffffffffffffffffffffffffffffffff1673ffffffffffffffffffffffffffffffffffffffff1673ffffffffffffffffffffffffffffffffffffffff16815260200190815260200160002054146105f3576040517f08c379a00000000000000000000000000000000000000000000000000000000081526004016105ea90611573565b60405180910390fd5b600060056000600160009054906101000a900473ffffffffffffffffffffffffffffffffffffffff1673ffffffffffffffffffffffffffffffffffffffff1673ffffffffffffffffffffffffffffffffffffffff1681526020019081526020016000205414610697576040517f08c379a000000000000000000000000000000000000000000000000000000000815260040161068e90611473565b60405180910390fd5b600260009054906101000a900473ffffffffffffffffffffffffffffffffffffffff1673ffffffffffffffffffffffffffffffffffffffff16ff5b60008054906101000a900473ffffffffffffffffffffffffffffffffffffffff1673ffffffffffffffffffffffffffffffffffffffff163373ffffffffffffffffffffffffffffffffffffffff1614610760576040517f08c379a000000000000000000000000000000000000000000000000000000000815260040161075790611453565b60405180910390fd5b600180600281111561079b577f4e487b7100000000000000000000000000000000000000000000000000000000600052602160045260246000fd5b600460009054906101000a900460ff1660028111156107e3577f4e487b7100000000000000000000000000000000000000000000000000000000600052602160045260246000fd5b14610823576040517f08c379a000000000000000000000000000000000000000000000000000000000815260040161081a906114d3565b60405180910390fd5b600a6003546108329190611635565b60026003546108419190611635565b61084b9190611666565b600560008060009054906101000a900473ffffffffffffffffffffffffffffffffffffffff1673ffffffffffffffffffffffffffffffffffffffff1673ffffffffffffffffffffffffffffffffffffffff16815260200190815260200160002060008282546108ba91906115df565b9250508190555060035460056000600160009054906101000a900473ffffffffffffffffffffffffffffffffffffffff1673ffffffffffffffffffffffffffffffffffffffff1673ffffffffffffffffffffffffffffffffffffffff168152602001908152602001600020600082825461093491906115df565b92505081905550600a60035461094a9190611635565b60056000600260009054906101000a900473ffffffffffffffffffffffffffffffffffffffff1673ffffffffffffffffffffffffffffffffffffffff1673ffffffffffffffffffffffffffffffffffffffff16815260200190815260200160002060008282546109ba91906115df565b925050819055506002600460006101000a81548160ff02191690836002811115610a0d577f4e487b7100000000000000000000000000000000000000000000000000000000600052602160045260246000fd5b021790555050565b60008054906101000a900473ffffffffffffffffffffffffffffffffffffffff1681565b60008054906101000a900473ffffffffffffffffffffffffffffffffffffffff1673ffffffffffffffffffffffffffffffffffffffff163373ffffffffffffffffffffffffffffffffffffffff1614610ac7576040517f08c379a0000000000000000000000000000000000000000000000000000000008152600401610abe90611453565b60405180910390fd5b6000806002811115610b02577f4e487b7100000000000000000000000000000000000000000000000000000000600052602160045260246000fd5b600460009054906101000a900460ff166002811115610b4a577f4e487b7100000000000000000000000000000000000000000000000000000000600052602160045260246000fd5b14610b8a576040517f08c379a0000000000000000000000000000000000000000000000000000000008152600401610b81906114d3565b60405180910390fd5b60006002600354610b9b9190611635565b600354610ba891906115df565b905080341015610bed576040517f08c379a0000000000000000000000000000000000000000000000000000000008152600401610be4906114f3565b60405180910390fd5b34600560003373ffffffffffffffffffffffffffffffffffffffff1673ffffffffffffffffffffffffffffffffffffffff1681526020019081526020016000206000828254610c3c91906115df565b925050819055505050565b60035481565b6000600560003373ffffffffffffffffffffffffffffffffffffffff1673ffffffffffffffffffffffffffffffffffffffff1681526020019081526020016000205411610ccf576040517f08c379a0000000000000000000000000000000000000000000000000000000008152600401610cc690611593565b60405180910390fd5b6000600560003373ffffffffffffffffffffffffffffffffffffffff1673ffffffffffffffffffffffffffffffffffffffff1681526020019081526020016000205490506000600560003373ffffffffffffffffffffffffffffffffffffffff1673ffffffffffffffffffffffffffffffffffffffff168152602001908152602001600020819055503373ffffffffffffffffffffffffffffffffffffffff166108fc829081150290604051600060405180830381858888f19350505050158015610d9e573d6000803e3d6000fd5b5050565b60056020528060005260406000206000915090505481565b6000806002811115610df5577f4e487b7100000000000000000000000000000000000000000000000000000000600052602160045260246000fd5b600460009054906101000a900460ff166002811115610e3d577f4e487b7100000000000000000000000000000000000000000000000000000000600052602160045260246000fd5b14610e7d576040517f08c379a0000000000000000000000000000000000000000000000000000000008152600401610e74906114d3565b60405180910390fd5b60006002600354610e8e9190611635565b600354610e9b91906115df565b90506000600354905060006002811115610ede577f4e487b7100000000000000000000000000000000000000000000000000000000600052602160045260246000fd5b600460009054906101000a900460ff166002811115610f26577f4e487b7100000000000000000000000000000000000000000000000000000000600052602160045260246000fd5b14610f66576040517f08c379a0000000000000000000000000000000000000000000000000000000008152600401610f5d906114b3565b60405180910390fd5b81600560008060009054906101000a900473ffffffffffffffffffffffffffffffffffffffff1673ffffffffffffffffffffffffffffffffffffffff1673ffffffffffffffffffffffffffffffffffffffff168152602001908152602001600020541015611009576040517f08c379a000000000000000000000000000000000000000000000000000000000815260040161100090611533565b60405180910390fd5b8060056000600160009054906101000a900473ffffffffffffffffffffffffffffffffffffffff1673ffffffffffffffffffffffffffffffffffffffff1673ffffffffffffffffffffffffffffffffffffffff1681526020019081526020016000205410156110ad576040517f08c379a00000000000000000000000000000000000000000000000000000000081526004016110a490611433565b60405180910390fd5b81600560008060009054906101000a900473ffffffffffffffffffffffffffffffffffffffff1673ffffffffffffffffffffffffffffffffffffffff1673ffffffffffffffffffffffffffffffffffffffff168152602001908152602001600020600082825461111d9190611666565b925050819055508060056000600160009054906101000a900473ffffffffffffffffffffffffffffffffffffffff1673ffffffffffffffffffffffffffffffffffffffff1673ffffffffffffffffffffffffffffffffffffffff16815260200190815260200160002060008282546111959190611666565b925050819055506001600460006101000a81548160ff021916908360028111156111e8577f4e487b7100000000000000000000000000000000000000000000000000000000600052602160045260246000fd5b0217905550505050565b600260009054906101000a900473ffffffffffffffffffffffffffffffffffffffff1681565b6000813590506112278161196c565b92915050565b60006020828403121561123f57600080fd5b600061124d84828501611218565b91505092915050565b61125f8161169a565b82525050565b60006112726016836115ce565b915061127d82611734565b602082019050919050565b60006112956017836115ce565b91506112a08261175d565b602082019050919050565b60006112b8601d836115ce565b91506112c382611786565b602082019050919050565b60006112db6017836115ce565b91506112e6826117af565b602082019050919050565b60006112fe6018836115ce565b9150611309826117d8565b602082019050919050565b6000611321600e836115ce565b915061132c82611801565b602082019050919050565b60006113446026836115ce565b915061134f8261182a565b604082019050919050565b60006113676018836115ce565b915061137282611879565b602082019050919050565b600061138a6015836115ce565b9150611395826118a2565b602082019050919050565b60006113ad6027836115ce565b91506113b8826118cb565b604082019050919050565b60006113d0601c836115ce565b91506113db8261191a565b602082019050919050565b60006113f36012836115ce565b91506113fe82611943565b602082019050919050565b611412816116cc565b82525050565b600060208201905061142d6000830184611256565b92915050565b6000602082019050818103600083015261144c81611265565b9050919050565b6000602082019050818103600083015261146c81611288565b9050919050565b6000602082019050818103600083015261148c816112ab565b9050919050565b600060208201905081810360008301526114ac816112ce565b9050919050565b600060208201905081810360008301526114cc816112f1565b9050919050565b600060208201905081810360008301526114ec81611314565b9050919050565b6000602082019050818103600083015261150c81611337565b9050919050565b6000602082019050818103600083015261152c8161135a565b9050919050565b6000602082019050818103600083015261154c8161137d565b9050919050565b6000602082019050818103600083015261156c816113a0565b9050919050565b6000602082019050818103600083015261158c816113c3565b9050919050565b600060208201905081810360008301526115ac816113e6565b9050919050565b60006020820190506115c86000830184611409565b92915050565b600082825260208201905092915050565b60006115ea826116cc565b91506115f5836116cc565b9250827fffffffffffffffffffffffffffffffffffffffffffffffffffffffffffffffff0382111561162a576116296116d6565b5b828201905092915050565b6000611640826116cc565b915061164b836116cc565b92508261165b5761165a611705565b5b828204905092915050565b6000611671826116cc565b915061167c836116cc565b92508282101561168f5761168e6116d6565b5b828203905092915050565b60006116a5826116ac565b9050919050565b600073ffffffffffffffffffffffffffffffffffffffff82169050919050565b6000819050919050565b7f4e487b7100000000000000000000000000000000000000000000000000000000600052601160045260246000fd5b7f4e487b7100000000000000000000000000000000000000000000000000000000600052601260045260246000fd5b7f53656c6c6572206e6f742070617920656e6f7567682e00000000000000000000600082015250565b7f4f6e6c792062757965722063616e206f7065726174652e000000000000000000600082015250565b7f53656c6c6572206861732062616c616e6365206e6f7420636c61696d2e000000600082015250565b7f4f6e6c79206167656e742063616e206f7065726174652e000000000000000000600082015250565b7f4d75636820626520696e20506179696e672073746174652e0000000000000000600082015250565b7f496e76616c69642073746174652e000000000000000000000000000000000000600082015250565b7f42757965722073686f756c64206465706f7369746520312e352074696d65732060008201527f50524943452e0000000000000000000000000000000000000000000000000000602082015250565b7f4f6e6c792073656c6c65722063616e206f7065726174652e0000000000000000600082015250565b7f4275796572206e6f742070617920656e6f7567682e0000000000000000000000600082015250565b7f53656c6c65722073686f7564206465706f73697465206173206d75636820617360008201527f2050524943452e00000000000000000000000000000000000000000000000000602082015250565b7f4275796572206861732062616c616e6365206e6f7420636c61696d2e00000000600082015250565b7f4e6f20656e6f7567682062616c616e63652e0000000000000000000000000000600082015250565b6119758161169a565b811461198057600080fd5b5056fea26469706673582212203c0ee553f081fbe37f6230068ce8dc3c11793780551755ad61593ac1e649a41164736f6c63430008010033",
  "immutableReferences": {},
  "source": "// SPDX-License-Identifier: MIT\r\n\r\n\r\npragma solidity ^0.8.1;\r\n\r\ncontract VengeanceEscrow{\r\n    address public buyer;\r\n    address public seller;\r\n    address public agent;\r\n    uint256 public PRICE;\r\n    enum State {Paying, Deliever, Done}\r\n    State state;\r\n    mapping(address=>uint256) public refundableBalance;\r\n    \r\n    \r\n    constructor(address agent_,address buyer_, address seller_, uint256 price_){\r\n        buyer = buyer_;\r\n        seller = seller_;\r\n        agent = agent_;\r\n        PRICE = price_;\r\n        state = State.Paying;\r\n    }\r\n    \r\n    modifier buyerOnly(){\r\n        require(msg.sender == buyer, \"Only buyer can operate.\");\r\n        _;\r\n    }\r\n    \r\n    modifier sellerOnly(){\r\n        require(msg.sender == seller, \"Only seller can operate.\");\r\n        _;\r\n    }\r\n    \r\n    modifier agentOnly(){\r\n        require(msg.sender == agent, \"Only agent can operate.\");\r\n        _;\r\n    }\r\n    \r\n    modifier onState(State allowedState){\r\n        require(state == allowedState, \"Invalid state.\");\r\n        _;\r\n    }\r\n    \r\n    function buyerPay() payable public buyerOnly onState(State.Paying){\r\n        uint256 buyperPayment =  PRICE + (PRICE / 2);\r\n        require(msg.value >= buyperPayment, \"Buyer should deposite 1.5 times PRICE.\");\r\n        refundableBalance[msg.sender] +=  msg.value;\r\n    }\r\n    \r\n    function sellerPay() payable public sellerOnly onState(State.Paying){\r\n        uint256 sellerPayment =  PRICE;\r\n        require(msg.value >= sellerPayment, \"Seller shoud deposite as much as PRICE.\");\r\n        refundableBalance[msg.sender] += msg.value;\r\n    }\r\n    \r\n    function withDrawAll() payable public {\r\n        require(refundableBalance[msg.sender] > 0, \"No enough balance.\");\r\n        uint256 currentBalance = refundableBalance[msg.sender];\r\n        refundableBalance[msg.sender] = 0;\r\n        payable(msg.sender).transfer(currentBalance);\r\n    }\r\n    \r\n    // after both sides have paid enough, they can start to deliever goods.\r\n    function finishPayment() public onState(State.Paying){\r\n        uint256 buyperPayment =  PRICE + (PRICE / 2);\r\n        uint256 sellerPayment =  PRICE ;\r\n        require(state == State.Paying, \"Much be in Paying state.\");\r\n        require(refundableBalance[buyer] >= buyperPayment, \"Buyer not pay enough.\");\r\n        require(refundableBalance[seller] >= sellerPayment, \"Seller not pay enough.\");\r\n        refundableBalance[buyer] -= buyperPayment;\r\n        refundableBalance[seller] -= sellerPayment;\r\n        state = State.Deliever;\r\n    }\r\n    \r\n    // buyer should confirm the deliver after receive goods\r\n    function confirmDeliver() public buyerOnly onState(State.Deliever){\r\n        // buyer pay 10% service fee\r\n        refundableBalance[buyer] += (PRICE / 2) - (PRICE / 10);\r\n        refundableBalance[seller] += PRICE;\r\n        refundableBalance[agent] += (PRICE / 10);\r\n        state = State.Done;\r\n    }\r\n    \r\n    function destory() public payable agentOnly onState(State.Done){\r\n        require(refundableBalance[buyer] == 0, \"Buyer has balance not claim.\");\r\n        require(refundableBalance[seller] == 0, \"Seller has balance not claim.\");\r\n        selfdestruct(payable(agent));\r\n    }\r\n    \r\n    \r\n}\r\n\r\ncontract VengeanceEscrowFactory {\r\n    // creator needs to give the contract name\r\n    mapping(address => mapping(string => VengeanceEscrow)) escrows;\r\n    \r\n    function createContract(string calldata name, address buyer, address seller, uint256 price) public{\r\n        require(escrows[msg.sender][name] == VengeanceEscrow(address(0)), \"A contract with this name has existed.\");\r\n        escrows[msg.sender][name] = new VengeanceEscrow(msg.sender, buyer, seller, price);\r\n    }\r\n\r\n    function getMyEscrow(string calldata name) public view returns(VengeanceEscrow){\r\n        return escrows[msg.sender][name];\r\n    }\r\n\r\n\r\n}",
  "sourcePath": "C:/Users/Caleb/Desktop/school/pattern/lab/VengeanceEscrow/contracts/VengeanceEscrow.sol",
  "compiler": {
    "name": "solc",
    "version": "0.8.1+commit.df193b15.Emscripten.clang"
  },
  "schemaVersion": "3.4.1",
  "updatedAt": "2021-06-07T06:51:06.144Z",
  "devdoc": {
    "kind": "dev",
    "methods": {},
    "version": 1
  },
  "userdoc": {
    "kind": "user",
    "methods": {},
    "version": 1
  }
}